{
  "_format": "hh-sol-artifact-1",
  "contractName": "EnergyTrading",
  "sourceName": "contracts/EnergyTrading.sol",
  "abi": [
    {
      "inputs": [
        {
          "internalType": "address",
          "name": "_greenCoinAddress",
          "type": "address"
        },
        {
          "internalType": "address",
          "name": "_oracleAddress",
          "type": "address"
        }
      ],
      "stateMutability": "nonpayable",
      "type": "constructor"
    },
    {
      "inputs": [],
      "name": "AmountTooLarge",
      "type": "error"
    },
    {
      "inputs": [],
      "name": "EscrowTransferFailed",
      "type": "error"
    },
    {
      "inputs": [],
      "name": "InvalidAddress",
      "type": "error"
    },
    {
      "inputs": [],
      "name": "ListingAlreadyMatched",
      "type": "error"
    },
    {
      "inputs": [],
      "name": "ListingAlreadySettled",
      "type": "error"
    },
    {
      "inputs": [],
      "name": "ListingNotActive",
      "type": "error"
    },
    {
      "inputs": [],
      "name": "ListingNotFound",
      "type": "error"
    },
    {
      "inputs": [],
      "name": "OnlyBuyerOrOracle",
      "type": "error"
    },
    {
      "inputs": [],
      "name": "OnlyOracle",
      "type": "error"
    },
    {
      "inputs": [],
      "name": "OnlySeller",
      "type": "error"
    },
    {
      "inputs": [
        {
          "internalType": "address",
          "name": "owner",
          "type": "address"
        }
      ],
      "name": "OwnableInvalidOwner",
      "type": "error"
    },
    {
      "inputs": [
        {
          "internalType": "address",
          "name": "account",
          "type": "address"
        }
      ],
      "name": "OwnableUnauthorizedAccount",
      "type": "error"
    },
    {
      "inputs": [],
      "name": "PayoutTransferFailed",
      "type": "error"
    },
    {
      "inputs": [],
      "name": "PriceTooLarge",
      "type": "error"
    },
    {
      "inputs": [],
      "name": "RefundTimeoutNotReached",
      "type": "error"
    },
    {
      "inputs": [],
      "name": "RefundTransferFailed",
      "type": "error"
    },
    {
      "inputs": [],
      "name": "SellerCannotBuy",
      "type": "error"
    },
    {
      "inputs": [],
      "name": "TokenTransferFailed",
      "type": "error"
    },
    {
      "inputs": [],
      "name": "ZeroAmount",
      "type": "error"
    },
    {
      "inputs": [],
      "name": "ZeroPrice",
      "type": "error"
    },
    {
      "anonymous": false,
      "inputs": [
        {
          "indexed": true,
          "internalType": "uint256",
          "name": "listingId",
          "type": "uint256"
        },
        {
          "indexed": true,
          "internalType": "address",
          "name": "seller",
          "type": "address"
        },
        {
          "indexed": false,
          "internalType": "uint256",
          "name": "amount",
          "type": "uint256"
        },
        {
          "indexed": false,
          "internalType": "uint256",
          "name": "pricePerToken",
          "type": "uint256"
        }
      ],
      "name": "EnergyListed",
      "type": "event"
    },
    {
      "anonymous": false,
      "inputs": [
        {
          "indexed": true,
          "internalType": "uint256",
          "name": "listingId",
          "type": "uint256"
        },
        {
          "indexed": true,
          "internalType": "address",
          "name": "buyer",
          "type": "address"
        },
        {
          "indexed": false,
          "internalType": "uint256",
          "name": "depositAmount",
          "type": "uint256"
        }
      ],
      "name": "EnergyMatched",
      "type": "event"
    },
    {
      "anonymous": false,
      "inputs": [
        {
          "indexed": true,
          "internalType": "uint256",
          "name": "listingId",
          "type": "uint256"
        },
        {
          "indexed": true,
          "internalType": "address",
          "name": "seller",
          "type": "address"
        }
      ],
      "name": "ListingCancelled",
      "type": "event"
    },
    {
      "anonymous": false,
      "inputs": [
        {
          "indexed": true,
          "internalType": "address",
          "name": "oldOracle",
          "type": "address"
        },
        {
          "indexed": true,
          "internalType": "address",
          "name": "newOracle",
          "type": "address"
        }
      ],
      "name": "OracleAddressChanged",
      "type": "event"
    },
    {
      "anonymous": false,
      "inputs": [
        {
          "indexed": true,
          "internalType": "address",
          "name": "previousOwner",
          "type": "address"
        },
        {
          "indexed": true,
          "internalType": "address",
          "name": "newOwner",
          "type": "address"
        }
      ],
      "name": "OwnershipTransferred",
      "type": "event"
    },
    {
      "anonymous": false,
      "inputs": [
        {
          "indexed": true,
          "internalType": "uint256",
          "name": "listingId",
          "type": "uint256"
        },
        {
          "indexed": true,
          "internalType": "address",
          "name": "seller",
          "type": "address"
        },
        {
          "indexed": true,
          "internalType": "address",
          "name": "buyer",
          "type": "address"
        }
      ],
      "name": "TradeAborted",
      "type": "event"
    },
    {
      "anonymous": false,
      "inputs": [
        {
          "indexed": true,
          "internalType": "uint256",
          "name": "listingId",
          "type": "uint256"
        },
        {
          "indexed": true,
          "internalType": "address",
          "name": "seller",
          "type": "address"
        },
        {
          "indexed": true,
          "internalType": "address",
          "name": "buyer",
          "type": "address"
        },
        {
          "indexed": false,
          "internalType": "uint256",
          "name": "amount",
          "type": "uint256"
        },
        {
          "indexed": false,
          "internalType": "uint256",
          "name": "payout",
          "type": "uint256"
        }
      ],
      "name": "TradeSettled",
      "type": "event"
    },
    {
      "inputs": [
        {
          "internalType": "uint256",
          "name": "listingId",
          "type": "uint256"
        }
      ],
      "name": "abortTrade",
      "outputs": [],
      "stateMutability": "nonpayable",
      "type": "function"
    },
    {
      "inputs": [
        {
          "internalType": "uint256",
          "name": "listingId",
          "type": "uint256"
        }
      ],
      "name": "buyEnergy",
      "outputs": [],
      "stateMutability": "payable",
      "type": "function"
    },
    {
      "inputs": [
        {
          "internalType": "uint256",
          "name": "listingId",
          "type": "uint256"
        }
      ],
      "name": "cancelListing",
      "outputs": [],
      "stateMutability": "nonpayable",
      "type": "function"
    },
    {
      "inputs": [
        {
          "internalType": "uint256",
          "name": "listingId",
          "type": "uint256"
        }
      ],
      "name": "confirmDelivery",
      "outputs": [],
      "stateMutability": "nonpayable",
      "type": "function"
    },
    {
      "inputs": [],
      "name": "greenCoin",
      "outputs": [
        {
          "internalType": "contract IERC20",
          "name": "",
          "type": "address"
        }
      ],
      "stateMutability": "view",
      "type": "function"
    },
    {
      "inputs": [
        {
          "internalType": "uint256",
          "name": "amount",
          "type": "uint256"
        },
        {
          "internalType": "uint256",
          "name": "pricePerToken",
          "type": "uint256"
        }
      ],
      "name": "listEnergy",
      "outputs": [],
      "stateMutability": "nonpayable",
      "type": "function"
    },
    {
      "inputs": [],
      "name": "listingCount",
      "outputs": [
        {
          "internalType": "uint256",
          "name": "",
          "type": "uint256"
        }
      ],
      "stateMutability": "view",
      "type": "function"
    },
    {
      "inputs": [
        {
          "internalType": "uint256",
          "name": "",
          "type": "uint256"
        }
      ],
      "name": "listings",
      "outputs": [
        {
          "internalType": "uint256",
          "name": "id",
          "type": "uint256"
        },
        {
          "internalType": "uint128",
          "name": "amount",
          "type": "uint128"
        },
        {
          "internalType": "uint128",
          "name": "pricePerToken",
          "type": "uint128"
        },
        {
          "internalType": "address payable",
          "name": "seller",
          "type": "address"
        },
        {
          "internalType": "bool",
          "name": "isActive",
          "type": "bool"
        },
        {
          "internalType": "bool",
          "name": "isMatched",
          "type": "bool"
        },
        {
          "internalType": "bool",
          "name": "isSettled",
          "type": "bool"
        },
        {
          "internalType": "address",
          "name": "buyer",
          "type": "address"
        },
        {
          "internalType": "uint64",
          "name": "matchedAt",
          "type": "uint64"
        }
      ],
      "stateMutability": "view",
      "type": "function"
    },
    {
      "inputs": [],
      "name": "oracleAddress",
      "outputs": [
        {
          "internalType": "address",
          "name": "",
          "type": "address"
        }
      ],
      "stateMutability": "view",
      "type": "function"
    },
    {
      "inputs": [],
      "name": "owner",
      "outputs": [
        {
          "internalType": "address",
          "name": "",
          "type": "address"
        }
      ],
      "stateMutability": "view",
      "type": "function"
    },
    {
      "inputs": [],
      "name": "renounceOwnership",
      "outputs": [],
      "stateMutability": "nonpayable",
      "type": "function"
    },
    {
      "inputs": [
        {
          "internalType": "address",
          "name": "_newOracle",
          "type": "address"
        }
      ],
      "name": "setOracleAddress",
      "outputs": [],
      "stateMutability": "nonpayable",
      "type": "function"
    },
    {
      "inputs": [
        {
          "internalType": "address",
          "name": "newOwner",
          "type": "address"
        }
      ],
      "name": "transferOwnership",
      "outputs": [],
      "stateMutability": "nonpayable",
      "type": "function"
    }
  ],
  "bytecode": "0x60a06040523480156200001157600080fd5b50604051620019563803806200195683398101604081905262000034916200014d565b33806200005b57604051631e4fbdf760e01b81526000600482015260240160405180910390fd5b6200006681620000e0565b506001600160a01b0382166200008f5760405163e6c4247b60e01b815260040160405180910390fd5b6001600160a01b038116620000b75760405163e6c4247b60e01b815260040160405180910390fd5b6001600160a01b03918216608052600180546001600160a01b0319169190921617905562000185565b600080546001600160a01b038381166001600160a01b0319831681178455604051919092169283917f8be0079c531659141344cd1fd0a4f28419497f9722a3daafe3b4186f6b6457e09190a35050565b80516001600160a01b03811681146200014857600080fd5b919050565b600080604083850312156200016157600080fd5b6200016c8362000130565b91506200017c6020840162000130565b90509250929050565b608051611799620001bd600039600081816101f5015281816105db01528181610ba1015281816110a601526114dc01526117996000f3fe6080604052600436106100d25760003560e01c8063bc8a251f1161007f578063daab3aeb11610059578063daab3aeb14610237578063de74e57b14610257578063f2fde38b146103c4578063fd84cb97146103e457600080fd5b8063bc8a251f146101d0578063c452c98a146101e3578063c8a9fb5e1461021757600080fd5b80638da5cb5b116100b05780638da5cb5b1461012e578063a89ae4ba1461017f578063a9b07c26146101ac57600080fd5b8063305a67a8146100d75780634c69c00f146100f9578063715018a614610119575b600080fd5b3480156100e357600080fd5b506100f76100f23660046116c9565b610404565b005b34801561010557600080fd5b506100f76101143660046116e2565b6106b1565b34801561012557600080fd5b506100f7610794565b34801561013a57600080fd5b5060005473ffffffffffffffffffffffffffffffffffffffff165b60405173ffffffffffffffffffffffffffffffffffffffff90911681526020015b60405180910390f35b34801561018b57600080fd5b506001546101559073ffffffffffffffffffffffffffffffffffffffff1681565b3480156101b857600080fd5b506101c260025481565b604051908152602001610176565b6100f76101de3660046116c9565b6107a8565b3480156101ef57600080fd5b506101557f000000000000000000000000000000000000000000000000000000000000000081565b34801561022357600080fd5b506100f761023236600461171f565b610a5a565b34801561024357600080fd5b506100f76102523660046116c9565b610d65565b34801561026357600080fd5b506103476102723660046116c9565b6003602081905260009182526040909120805460018201546002830154929093015490926fffffffffffffffffffffffffffffffff80821693700100000000000000000000000000000000909204169173ffffffffffffffffffffffffffffffffffffffff8083169260ff74010000000000000000000000000000000000000000808304821694750100000000000000000000000000000000000000000084048316947601000000000000000000000000000000000000000000009094049092169282169167ffffffffffffffff9190041689565b60408051998a526fffffffffffffffffffffffffffffffff98891660208b0152969097169588019590955273ffffffffffffffffffffffffffffffffffffffff93841660608801529115156080870152151560a0860152151560c08501521660e083015267ffffffffffffffff1661010082015261012001610176565b3480156103d057600080fd5b506100f76103df3660046116e2565b6111a3565b3480156103f057600080fd5b506100f76103ff3660046116c9565b61120c565b60008181526003602052604090208054821461044c576040517f7e43e63800000000000000000000000000000000000000000000000000000000815260040160405180910390fd5b600281015473ffffffffffffffffffffffffffffffffffffffff16331461049f576040517f85d1f72600000000000000000000000000000000000000000000000000000000815260040160405180910390fd5b600281015474010000000000000000000000000000000000000000900460ff166104f5576040517f66cb03e900000000000000000000000000000000000000000000000000000000815260040160405180910390fd5b60028101547501000000000000000000000000000000000000000000900460ff161561054c576040517ee6a6e400000000000000000000000000000000000000000000000000000000815260040160405180910390fd5b6002810180547fffffffffffffffffffffff00ffffffffffffffffffffffffffffffffffffffff811690915560018201546040517fa9059cbb00000000000000000000000000000000000000000000000000000000815273ffffffffffffffffffffffffffffffffffffffff92831660048201526fffffffffffffffffffffffffffffffff90911660248201527f00000000000000000000000000000000000000000000000000000000000000009091169063a9059cbb906044016020604051808303816000875af1158015610626573d6000803e3d6000fd5b505050506040513d601f19601f8201168201806040525081019061064a9190611741565b610680576040517f045c4b0200000000000000000000000000000000000000000000000000000000815260040160405180910390fd5b604051339083907f8e25282255ab31897df2b0456bb993ac7f84d376861aefd84901d2d63a7428a290600090a35050565b6106b9611601565b73ffffffffffffffffffffffffffffffffffffffff8116610706576040517fe6c4247b00000000000000000000000000000000000000000000000000000000815260040160405180910390fd5b60015460405173ffffffffffffffffffffffffffffffffffffffff8084169216907f39206e6a16d6663e5a80ef081a32ce35bc314fe842cc614df23e92da300729df90600090a3600180547fffffffffffffffffffffffff00000000000000000000000000000000000000001673ffffffffffffffffffffffffffffffffffffffff92909216919091179055565b61079c611601565b6107a66000611654565b565b6000818152600360205260409020805482146107f0576040517f7e43e63800000000000000000000000000000000000000000000000000000000815260040160405180910390fd5b600281015474010000000000000000000000000000000000000000900460ff16610846576040517f66cb03e900000000000000000000000000000000000000000000000000000000815260040160405180910390fd5b60028101547501000000000000000000000000000000000000000000900460ff161561089d576040517ee6a6e400000000000000000000000000000000000000000000000000000000815260040160405180910390fd5b600281015473ffffffffffffffffffffffffffffffffffffffff1633036108f0576040517f2aa3c9e900000000000000000000000000000000000000000000000000000000815260040160405180910390fd5b6001810154670de0b6b3a764000070010000000000000000000000000000000082046fffffffffffffffffffffffffffffffff90811692169190910204348114610966576040517f601d5b9200000000000000000000000000000000000000000000000000000000815260040160405180910390fd5b60028201805475010000000000000000000000000000000000000000007fffffffffffffffffffff0000ffffffffffffffffffffffffffffffffffffffff9091161790556003820180547fffffffff0000000000000000000000000000000000000000000000000000000016337fffffffff0000000000000000ffffffffffffffffffffffffffffffffffffffff811691909117740100000000000000000000000000000000000000004267ffffffffffffffff16021790915560405134815284907f23ccca790677fffaf4aff996bb9b9498b44a74141ff6c19fde964b34476250f09060200160405180910390a3505050565b81600003610a94576040517f1f2a200500000000000000000000000000000000000000000000000000000000815260040160405180910390fd5b80600003610ace576040517f4dfba02300000000000000000000000000000000000000000000000000000000815260040160405180910390fd5b81816fffffffffffffffffffffffffffffffff82168214610b1b576040517f0625040100000000000000000000000000000000000000000000000000000000815260040160405180910390fd5b82816fffffffffffffffffffffffffffffffff1614610b66576040517f57b0e21000000000000000000000000000000000000000000000000000000000815260040160405180910390fd5b6040517f23b872dd000000000000000000000000000000000000000000000000000000008152336004820152306024820152604481018590527f000000000000000000000000000000000000000000000000000000000000000073ffffffffffffffffffffffffffffffffffffffff16906323b872dd906064016020604051808303816000875af1158015610bff573d6000803e3d6000fd5b505050506040513d601f19601f82011682018060405250810190610c239190611741565b610c59576040517f601d5b9200000000000000000000000000000000000000000000000000000000815260040160405180910390fd5b600280546001908101808355600081815260036020526040908190208281556fffffffffffffffffffffffffffffffff86811670010000000000000000000000000000000002908816179381019390935592820180547fffffffffffffffffffffff00ffffffffffffffffffffffffffffffffffffffff339081167fffffffffffffffffffffff000000000000000000000000000000000000000000909216919091177401000000000000000000000000000000000000000017909155925190929083907fdce237255d5bd98b57c816861c3b76c8e47e10382084f482135e29cb83a534be90610d55908a908a90918252602082015260400190565b60405180910390a3505050505050565b600081815260036020526040902080548214610dad576040517f7e43e63800000000000000000000000000000000000000000000000000000000815260040160405180910390fd5b60028101547501000000000000000000000000000000000000000000900460ff16610e04576040517f66cb03e900000000000000000000000000000000000000000000000000000000815260040160405180910390fd5b6002810154760100000000000000000000000000000000000000000000900460ff1615610e5d576040517f1b32fd6f00000000000000000000000000000000000000000000000000000000815260040160405180910390fd5b60015473ffffffffffffffffffffffffffffffffffffffff163314610f3757600381015473ffffffffffffffffffffffffffffffffffffffff163314610ecf576040517f553a562200000000000000000000000000000000000000000000000000000000815260040160405180910390fd5b600381015474010000000000000000000000000000000000000000900467ffffffffffffffff16620151800142101580610f35576040517f7c7b058500000000000000000000000000000000000000000000000000000000815260040160405180910390fd5b505b6002810180547fffffffffffffffffff000000ffffffffffffffffffffffffffffffffffffffff16905560018101546003820154604051670de0b6b3a764000070010000000000000000000000000000000084046fffffffffffffffffffffffffffffffff908116941693909302929092049160009173ffffffffffffffffffffffffffffffffffffffff169083908381818185875af1925050503d8060008114610ffe576040519150601f19603f3d011682016040523d82523d6000602084013e611003565b606091505b505090508061103e576040517fcbe4e8c300000000000000000000000000000000000000000000000000000000815260040160405180910390fd5b600283015460018401546040517fa9059cbb00000000000000000000000000000000000000000000000000000000815273ffffffffffffffffffffffffffffffffffffffff92831660048201526fffffffffffffffffffffffffffffffff90911660248201527f00000000000000000000000000000000000000000000000000000000000000009091169063a9059cbb906044016020604051808303816000875af11580156110f1573d6000803e3d6000fd5b505050506040513d601f19601f820116820180604052508101906111159190611741565b61114b576040517f045c4b0200000000000000000000000000000000000000000000000000000000815260040160405180910390fd5b6003830154600284015460405173ffffffffffffffffffffffffffffffffffffffff928316929091169086907f2141acfe963dc51324dce4fa609ef6d797434e32d97ba03c1c2307e0d9f4b74390600090a450505050565b6111ab611601565b73ffffffffffffffffffffffffffffffffffffffff8116611200576040517f1e4fbdf7000000000000000000000000000000000000000000000000000000008152600060048201526024015b60405180910390fd5b61120981611654565b50565b60015473ffffffffffffffffffffffffffffffffffffffff16331461125d576040517f80fee10500000000000000000000000000000000000000000000000000000000815260040160405180910390fd5b6000818152600360205260409020805482146112a5576040517f7e43e63800000000000000000000000000000000000000000000000000000000815260040160405180910390fd5b60028101547501000000000000000000000000000000000000000000900460ff166112fc576040517f66cb03e900000000000000000000000000000000000000000000000000000000815260040160405180910390fd5b6002810154760100000000000000000000000000000000000000000000900460ff1615611355576040517f1b32fd6f00000000000000000000000000000000000000000000000000000000815260040160405180910390fd5b6002810180547601000000000000000000000000000000000000000000007fffffffffffffffffff00ffffffffffffffffffffffffffffffffffffffffffff8216179091556001820154604051670de0b6b3a764000070010000000000000000000000000000000083046fffffffffffffffffffffffffffffffff908116931692909202919091049160009173ffffffffffffffffffffffffffffffffffffffff9091169083908381818185875af1925050503d8060008114611434576040519150601f19603f3d011682016040523d82523d6000602084013e611439565b606091505b5050905080611474576040517f521b70fc00000000000000000000000000000000000000000000000000000000815260040160405180910390fd5b600383015460018401546040517fa9059cbb00000000000000000000000000000000000000000000000000000000815273ffffffffffffffffffffffffffffffffffffffff92831660048201526fffffffffffffffffffffffffffffffff90911660248201527f00000000000000000000000000000000000000000000000000000000000000009091169063a9059cbb906044016020604051808303816000875af1158015611527573d6000803e3d6000fd5b505050506040513d601f19601f8201168201806040525081019061154b9190611741565b611581576040517f045c4b0200000000000000000000000000000000000000000000000000000000815260040160405180910390fd5b600383015460028401546001850154604080516fffffffffffffffffffffffffffffffff90921682526020820186905273ffffffffffffffffffffffffffffffffffffffff938416939092169187917f21a4e93bc292518c83e5623a9dde5c8df7f96b1561c0afca68fbe100b11221cf910160405180910390a450505050565b60005473ffffffffffffffffffffffffffffffffffffffff1633146107a6576040517f118cdaa70000000000000000000000000000000000000000000000000000000081523360048201526024016111f7565b6000805473ffffffffffffffffffffffffffffffffffffffff8381167fffffffffffffffffffffffff0000000000000000000000000000000000000000831681178455604051919092169283917f8be0079c531659141344cd1fd0a4f28419497f9722a3daafe3b4186f6b6457e09190a35050565b6000602082840312156116db57600080fd5b5035919050565b6000602082840312156116f457600080fd5b813573ffffffffffffffffffffffffffffffffffffffff8116811461171857600080fd5b9392505050565b6000806040838503121561173257600080fd5b50508035926020909101359150565b60006020828403121561175357600080fd5b8151801515811461171857600080fdfea26469706673582212204c84a8321e55575c5ffb1b53e570a0953e164f8dae8c0bd649e263edcc09a66b64736f6c63430008140033",
  "linkReferences": {},
  "deployedLinkReferences": {}
}