{
  "_format": "hh-sol-artifact-1",
  "contractName": "EnergyTrading",
  "sourceName": "contracts/EnergyTrading.sol",
  "abi": [
    {
      "inputs": [
        {
          "internalType": "address",
          "name": "_greenCoinAddress",
          "type": "address"
        },
        {
          "internalType": "address",
          "name": "_oracleAddress",
          "type": "address"
        }
      ],
      "stateMutability": "nonpayable",
      "type": "constructor"
    },
    {
      "inputs": [
        {
          "internalType": "address",
          "name": "owner",
          "type": "address"
        }
      ],
      "name": "OwnableInvalidOwner",
      "type": "error"
    },
    {
      "inputs": [
        {
          "internalType": "address",
          "name": "account",
          "type": "address"
        }
      ],
      "name": "OwnableUnauthorizedAccount",
      "type": "error"
    },
    {
      "anonymous": false,
      "inputs": [
        {
          "indexed": true,
          "internalType": "uint256",
          "name": "listingId",
          "type": "uint256"
        },
        {
          "indexed": true,
          "internalType": "address",
          "name": "seller",
          "type": "address"
        },
        {
          "indexed": false,
          "internalType": "uint256",
          "name": "amount",
          "type": "uint256"
        },
        {
          "indexed": false,
          "internalType": "uint256",
          "name": "pricePerToken",
          "type": "uint256"
        }
      ],
      "name": "EnergyListed",
      "type": "event"
    },
    {
      "anonymous": false,
      "inputs": [
        {
          "indexed": true,
          "internalType": "uint256",
          "name": "listingId",
          "type": "uint256"
        },
        {
          "indexed": true,
          "internalType": "address",
          "name": "buyer",
          "type": "address"
        },
        {
          "indexed": false,
          "internalType": "uint256",
          "name": "depositAmount",
          "type": "uint256"
        }
      ],
      "name": "EnergyMatched",
      "type": "event"
    },
    {
      "anonymous": false,
      "inputs": [
        {
          "indexed": true,
          "internalType": "uint256",
          "name": "listingId",
          "type": "uint256"
        },
        {
          "indexed": true,
          "internalType": "address",
          "name": "seller",
          "type": "address"
        }
      ],
      "name": "ListingCancelled",
      "type": "event"
    },
    {
      "anonymous": false,
      "inputs": [
        {
          "indexed": true,
          "internalType": "address",
          "name": "oldOracle",
          "type": "address"
        },
        {
          "indexed": true,
          "internalType": "address",
          "name": "newOracle",
          "type": "address"
        }
      ],
      "name": "OracleAddressChanged",
      "type": "event"
    },
    {
      "anonymous": false,
      "inputs": [
        {
          "indexed": true,
          "internalType": "address",
          "name": "previousOwner",
          "type": "address"
        },
        {
          "indexed": true,
          "internalType": "address",
          "name": "newOwner",
          "type": "address"
        }
      ],
      "name": "OwnershipTransferred",
      "type": "event"
    },
    {
      "anonymous": false,
      "inputs": [
        {
          "indexed": true,
          "internalType": "uint256",
          "name": "listingId",
          "type": "uint256"
        },
        {
          "indexed": true,
          "internalType": "address",
          "name": "seller",
          "type": "address"
        },
        {
          "indexed": true,
          "internalType": "address",
          "name": "buyer",
          "type": "address"
        }
      ],
      "name": "TradeAborted",
      "type": "event"
    },
    {
      "anonymous": false,
      "inputs": [
        {
          "indexed": true,
          "internalType": "uint256",
          "name": "listingId",
          "type": "uint256"
        },
        {
          "indexed": true,
          "internalType": "address",
          "name": "seller",
          "type": "address"
        },
        {
          "indexed": true,
          "internalType": "address",
          "name": "buyer",
          "type": "address"
        },
        {
          "indexed": false,
          "internalType": "uint256",
          "name": "amount",
          "type": "uint256"
        },
        {
          "indexed": false,
          "internalType": "uint256",
          "name": "payout",
          "type": "uint256"
        }
      ],
      "name": "TradeSettled",
      "type": "event"
    },
    {
      "inputs": [
        {
          "internalType": "uint256",
          "name": "listingId",
          "type": "uint256"
        }
      ],
      "name": "abortTrade",
      "outputs": [],
      "stateMutability": "nonpayable",
      "type": "function"
    },
    {
      "inputs": [
        {
          "internalType": "uint256",
          "name": "listingId",
          "type": "uint256"
        }
      ],
      "name": "buyEnergy",
      "outputs": [],
      "stateMutability": "payable",
      "type": "function"
    },
    {
      "inputs": [
        {
          "internalType": "uint256",
          "name": "listingId",
          "type": "uint256"
        }
      ],
      "name": "cancelListing",
      "outputs": [],
      "stateMutability": "nonpayable",
      "type": "function"
    },
    {
      "inputs": [
        {
          "internalType": "uint256",
          "name": "listingId",
          "type": "uint256"
        }
      ],
      "name": "confirmDelivery",
      "outputs": [],
      "stateMutability": "nonpayable",
      "type": "function"
    },
    {
      "inputs": [],
      "name": "greenCoin",
      "outputs": [
        {
          "internalType": "contract IERC20",
          "name": "",
          "type": "address"
        }
      ],
      "stateMutability": "view",
      "type": "function"
    },
    {
      "inputs": [
        {
          "internalType": "uint256",
          "name": "amount",
          "type": "uint256"
        },
        {
          "internalType": "uint256",
          "name": "pricePerToken",
          "type": "uint256"
        }
      ],
      "name": "listEnergy",
      "outputs": [],
      "stateMutability": "nonpayable",
      "type": "function"
    },
    {
      "inputs": [],
      "name": "listingCount",
      "outputs": [
        {
          "internalType": "uint256",
          "name": "",
          "type": "uint256"
        }
      ],
      "stateMutability": "view",
      "type": "function"
    },
    {
      "inputs": [
        {
          "internalType": "uint256",
          "name": "",
          "type": "uint256"
        }
      ],
      "name": "listings",
      "outputs": [
        {
          "internalType": "uint256",
          "name": "id",
          "type": "uint256"
        },
        {
          "internalType": "address payable",
          "name": "seller",
          "type": "address"
        },
        {
          "internalType": "uint256",
          "name": "amount",
          "type": "uint256"
        },
        {
          "internalType": "uint256",
          "name": "pricePerToken",
          "type": "uint256"
        },
        {
          "internalType": "address",
          "name": "buyer",
          "type": "address"
        },
        {
          "internalType": "uint256",
          "name": "matchedAt",
          "type": "uint256"
        },
        {
          "internalType": "bool",
          "name": "isActive",
          "type": "bool"
        },
        {
          "internalType": "bool",
          "name": "isMatched",
          "type": "bool"
        },
        {
          "internalType": "bool",
          "name": "isSettled",
          "type": "bool"
        }
      ],
      "stateMutability": "view",
      "type": "function"
    },
    {
      "inputs": [],
      "name": "oracleAddress",
      "outputs": [
        {
          "internalType": "address",
          "name": "",
          "type": "address"
        }
      ],
      "stateMutability": "view",
      "type": "function"
    },
    {
      "inputs": [],
      "name": "owner",
      "outputs": [
        {
          "internalType": "address",
          "name": "",
          "type": "address"
        }
      ],
      "stateMutability": "view",
      "type": "function"
    },
    {
      "inputs": [],
      "name": "renounceOwnership",
      "outputs": [],
      "stateMutability": "nonpayable",
      "type": "function"
    },
    {
      "inputs": [
        {
          "internalType": "address",
          "name": "_newOracle",
          "type": "address"
        }
      ],
      "name": "setOracleAddress",
      "outputs": [],
      "stateMutability": "nonpayable",
      "type": "function"
    },
    {
      "inputs": [
        {
          "internalType": "address",
          "name": "newOwner",
          "type": "address"
        }
      ],
      "name": "transferOwnership",
      "outputs": [],
      "stateMutability": "nonpayable",
      "type": "function"
    }
  ],
  "bytecode": "0x60a06040523480156200001157600080fd5b50604051620015f8380380620015f88339810160408190526200003491620001ae565b33806200005c57604051631e4fbdf760e01b8152600060048201526024015b60405180910390fd5b620000678162000141565b506001600160a01b038216620000c05760405162461bcd60e51b815260206004820152601960248201527f496e76616c696420477265656e436f696e206164647265737300000000000000604482015260640162000053565b6001600160a01b038116620001185760405162461bcd60e51b815260206004820152601660248201527f496e76616c6964204f7261636c65206164647265737300000000000000000000604482015260640162000053565b6001600160a01b03918216608052600180546001600160a01b03191691909216179055620001e6565b600080546001600160a01b038381166001600160a01b0319831681178455604051919092169283917f8be0079c531659141344cd1fd0a4f28419497f9722a3daafe3b4186f6b6457e09190a35050565b80516001600160a01b0381168114620001a957600080fd5b919050565b60008060408385031215620001c257600080fd5b620001cd8362000191565b9150620001dd6020840162000191565b90509250929050565b6080516113da6200021e600039600081816101be0152818161049f0152818161093d01528181610d9b01526110c601526113da6000f3fe6080604052600436106100c25760003560e01c8063bc8a251f1161007f578063daab3aeb11610059578063daab3aeb14610200578063de74e57b14610220578063f2fde38b146102ef578063fd84cb971461030f57600080fd5b8063bc8a251f14610199578063c452c98a146101ac578063c8a9fb5e146101e057600080fd5b8063305a67a8146100c75780634c69c00f146100e9578063715018a6146101095780638da5cb5b1461011e578063a89ae4ba14610155578063a9b07c2614610175575b600080fd5b3480156100d357600080fd5b506100e76100e2366004611266565b61032f565b005b3480156100f557600080fd5b506100e761010436600461127f565b610584565b34801561011557600080fd5b506100e7610637565b34801561012a57600080fd5b506000546001600160a01b03165b6040516001600160a01b0390911681526020015b60405180910390f35b34801561016157600080fd5b50600154610138906001600160a01b031681565b34801561018157600080fd5b5061018b60025481565b60405190815260200161014c565b6100e76101a7366004611266565b61064b565b3480156101b857600080fd5b506101387f000000000000000000000000000000000000000000000000000000000000000081565b3480156101ec57600080fd5b506100e76101fb3660046112af565b610869565b34801561020c57600080fd5b506100e761021b366004611266565b610b4f565b34801561022c57600080fd5b5061029b61023b366004611266565b6003602081905260009182526040909120805460018201546002830154938301546004840154600585015460069095015493956001600160a01b0393841695909492939091169160ff808216916101008104821691620100009091041689565b60408051998a526001600160a01b0398891660208b0152890196909652606088019490945294909116608086015260a085015291151560c084015290151560e083015215156101008201526101200161014c565b3480156102fb57600080fd5b506100e761030a36600461127f565b610ea0565b34801561031b57600080fd5b506100e761032a366004611266565b610ede565b6000818152600360205260409020805482146103665760405162461bcd60e51b815260040161035d906112d1565b60405180910390fd5b60018101546001600160a01b031633146103c25760405162461bcd60e51b815260206004820152601e60248201527f4f6e6c792073656c6c65722063616e2063616e63656c206c697374696e670000604482015260640161035d565b600681015460ff1661040e5760405162461bcd60e51b81526020600482015260156024820152744c697374696e67206973206e6f742061637469766560581b604482015260640161035d565b6006810154610100900460ff16156104625760405162461bcd60e51b8152602060048201526017602482015276131a5cdd1a5b99c8185b1c9958591e481b585d18da1959604a1b604482015260640161035d565b60068101805460ff191690556001810154600282015460405163a9059cbb60e01b81526001600160a01b03928316600482015260248101919091527f00000000000000000000000000000000000000000000000000000000000000009091169063a9059cbb906044016020604051808303816000875af11580156104ea573d6000803e3d6000fd5b505050506040513d601f19601f8201168201806040525081019061050e9190611301565b6105535760405162461bcd60e51b81526020600482015260166024820152751499599d5b99081d1c985b9cd9995c8819985a5b195960521b604482015260640161035d565b604051339083907f8e25282255ab31897df2b0456bb993ac7f84d376861aefd84901d2d63a7428a290600090a35050565b61058c6111e9565b6001600160a01b0381166105db5760405162461bcd60e51b8152602060048201526016602482015275496e76616c6964204f7261636c65206164647265737360501b604482015260640161035d565b6001546040516001600160a01b038084169216907f39206e6a16d6663e5a80ef081a32ce35bc314fe842cc614df23e92da300729df90600090a3600180546001600160a01b0319166001600160a01b0392909216919091179055565b61063f6111e9565b6106496000611216565b565b6000818152600360205260409020805482146106795760405162461bcd60e51b815260040161035d906112d1565b600681015460ff166106c55760405162461bcd60e51b81526020600482015260156024820152744c697374696e67206973206e6f742061637469766560581b604482015260640161035d565b6006810154610100900460ff16156107195760405162461bcd60e51b8152602060048201526017602482015276131a5cdd1a5b99c8185b1c9958591e481b585d18da1959604a1b604482015260640161035d565b60018101546001600160a01b031633036107805760405162461bcd60e51b815260206004820152602260248201527f53656c6c65722063616e6e6f7420627579207468656972206f776e20656e6572604482015261677960f01b606482015260840161035d565b6000670de0b6b3a76400008260030154836002015461079f9190611339565b6107a99190611356565b90508034146107fa5760405162461bcd60e51b815260206004820152601860248201527f496e636f7272656374207061796d656e7420616d6f756e740000000000000000604482015260640161035d565b60068201805461ffff19166101001790556004820180546001600160a01b0319163390811790915542600584015560405184907f23ccca790677fffaf4aff996bb9b9498b44a74141ff6c19fde964b34476250f09061085c9034815260200190565b60405180910390a3505050565b600082116108b95760405162461bcd60e51b815260206004820181905260248201527f416d6f756e74206d7573742062652067726561746572207468616e207a65726f604482015260640161035d565b6000811161091b5760405162461bcd60e51b815260206004820152602960248201527f50726963652070657220746f6b656e206d7573742062652067726561746572206044820152687468616e207a65726f60b81b606482015260840161035d565b6040516323b872dd60e01b8152336004820152306024820152604481018390527f00000000000000000000000000000000000000000000000000000000000000006001600160a01b0316906323b872dd906064016020604051808303816000875af115801561098e573d6000803e3d6000fd5b505050506040513d601f19601f820116820180604052508101906109b29190611301565b6109fe5760405162461bcd60e51b815260206004820181905260248201527f477265656e436f696e20657363726f77207472616e73666572206661696c6564604482015260640161035d565b60028054906000610a0e83611378565b90915550506040805161012081018252600280548083523360208085018281528587018981526060870189815260006080890181815260a08a01828152600160c08c0181815260e08d01858152610100808f018781529c875260039a8b9052958f90209d518e559751918d0180546001600160a01b039384166001600160a01b03199182161790915596518d8d01559451978c0197909755905160048b01805491909716941693909317909455905160058801555160069096018054915194511515620100000262ff00001995151590930261ff00199715159790971661ffff19909216919091179590951792909216919091179092555491519091907fdce237255d5bd98b57c816861c3b76c8e47e10382084f482135e29cb83a534be90610b439086908690918252602082015260400190565b60405180910390a35050565b600081815260036020526040902080548214610b7d5760405162461bcd60e51b815260040161035d906112d1565b6006810154610100900460ff16610bcf5760405162461bcd60e51b8152602060048201526016602482015275131a5cdd1a5b99c81a5cc81b9bdd081b585d18da195960521b604482015260640161035d565b600681015462010000900460ff1615610c245760405162461bcd60e51b8152602060048201526017602482015276131a5cdd1a5b99c8185b1c9958591e481cd95d1d1b1959604a1b604482015260640161035d565b6001546001600160a01b03163314610cf35760048101546001600160a01b03163314610c925760405162461bcd60e51b815260206004820152601e60248201527f4f6e6c79206275796572206f72206f7261636c652063616e2061626f72740000604482015260640161035d565b6005810154610ca49062015180611391565b421015610cf35760405162461bcd60e51b815260206004820152601e60248201527f526566756e642074696d656f7574206e6f742072656163686564207965740000604482015260640161035d565b60068101805462ffffff1916905560038101546002820154600091670de0b6b3a764000091610d229190611339565b610d2c9190611356565b60048301546040519192506001600160a01b03169082156108fc029083906000818181858888f19350505050158015610d69573d6000803e3d6000fd5b506001820154600283015460405163a9059cbb60e01b81526001600160a01b03928316600482015260248101919091527f00000000000000000000000000000000000000000000000000000000000000009091169063a9059cbb906044016020604051808303816000875af1158015610de6573d6000803e3d6000fd5b505050506040513d601f19601f82011682018060405250810190610e0a9190611301565b610e565760405162461bcd60e51b815260206004820152601760248201527f477265656e436f696e2072657475726e206661696c6564000000000000000000604482015260640161035d565b600482015460018301546040516001600160a01b03928316929091169085907f2141acfe963dc51324dce4fa609ef6d797434e32d97ba03c1c2307e0d9f4b74390600090a4505050565b610ea86111e9565b6001600160a01b038116610ed257604051631e4fbdf760e01b81526000600482015260240161035d565b610edb81611216565b50565b6001546001600160a01b03163314610f445760405162461bcd60e51b815260206004820152602360248201527f43616c6c6572206973206e6f742074686520617574686f72697a6564206f7261604482015262636c6560e81b606482015260840161035d565b600081815260036020526040902080548214610f725760405162461bcd60e51b815260040161035d906112d1565b6006810154610100900460ff16610fc45760405162461bcd60e51b8152602060048201526016602482015275131a5cdd1a5b99c81a5cc81b9bdd081b585d18da195960521b604482015260640161035d565b600681015462010000900460ff16156110195760405162461bcd60e51b8152602060048201526017602482015276131a5cdd1a5b99c8185b1c9958591e481cd95d1d1b1959604a1b604482015260640161035d565b60068101805462ff000019166201000017905560038101546002820154600091670de0b6b3a76400009161104d9190611339565b6110579190611356565b60018301546040519192506001600160a01b03169082156108fc029083906000818181858888f19350505050158015611094573d6000803e3d6000fd5b50600482810154600284015460405163a9059cbb60e01b81526001600160a01b039283169381019390935260248301527f0000000000000000000000000000000000000000000000000000000000000000169063a9059cbb906044016020604051808303816000875af115801561110f573d6000803e3d6000fd5b505050506040513d601f19601f820116820180604052508101906111339190611301565b61118a5760405162461bcd60e51b815260206004820152602260248201527f477265656e436f696e2064656c6976657279207472616e73666572206661696c604482015261195960f21b606482015260840161035d565b60048201546001830154600284015460408051918252602082018590526001600160a01b03938416939092169186917f21a4e93bc292518c83e5623a9dde5c8df7f96b1561c0afca68fbe100b11221cf910160405180910390a4505050565b6000546001600160a01b031633146106495760405163118cdaa760e01b815233600482015260240161035d565b600080546001600160a01b038381166001600160a01b0319831681178455604051919092169283917f8be0079c531659141344cd1fd0a4f28419497f9722a3daafe3b4186f6b6457e09190a35050565b60006020828403121561127857600080fd5b5035919050565b60006020828403121561129157600080fd5b81356001600160a01b03811681146112a857600080fd5b9392505050565b600080604083850312156112c257600080fd5b50508035926020909101359150565b602080825260169082015275131a5cdd1a5b99c8191bd95cc81b9bdd08195e1a5cdd60521b604082015260600190565b60006020828403121561131357600080fd5b815180151581146112a857600080fd5b634e487b7160e01b600052601160045260246000fd5b808202811582820484141761135057611350611323565b92915050565b60008261137357634e487b7160e01b600052601260045260246000fd5b500490565b60006001820161138a5761138a611323565b5060010190565b808201808211156113505761135061132356fea26469706673582212205dbef3a2d0e1a1930e7d3cc1a100e8716b119583653d196d0607a0eebf7798cb64736f6c63430008140033",
  "linkReferences": {},
  "deployedLinkReferences": {}
}